:100000000C9456000C9468000C9468000C946800E2
:100010000C9468000C9468000C9468000C946800C0
:100020000C9468000C9468000C9468000C946800B0
:100030000C9468000C9468000C9468000C946800A0
:100040000C9468000C9468000C9468000C94680090
:100050000C945B050C9468000C948E050C9468005D
:100060000C9468000C9468000C9468000C94680070
:100070000C9417010C9468000C944A01D801DC011F
:10008000E001E401E801EC01F001F401F801FC01F8
:10009000000204021C062006240628062C06300650
:1000A000340638063C0640064406480611241FBEA6
:1000B000CFEFD0E1DEBFCDBF21E0A0E0B1E001C0D5
:1000C0001D92AC38B207E1F70E94CE060C9474077B
:1000D0000C940000549A559A50985298519A539AF9
:1000E000569A579A5F985E985C985D9808958091AB
:1000F0000201909103018131974240F01092130167
:1001000010921401109203011092020180910201D9
:100110009091030101969093030180930201089549
:1001200080910001909101018131974240F010923D
:1001300005011092040110920101109200018091BA
:1001400000019091010101969093010180930001BB
:100150000895CF92DF92EF92FF926B017C01CC0C5D
:10016000DD1CEE1CFF1CCC0CDD1CEE1CFF1CCC0CA3
:10017000DD1CEE1CFF1CA7019601220F331F441F3C
:10018000551F60E074E284EF90E00E941207215056
:10019000310941E050E0C616D706E806F90610F02E
:1001A00040E050E0240F351F2093CC003093CD0069
:1001B000E9ECF0E0808188618083EAECF0E0808106
:1001C0008660808380E0FF90EF90DF90CF9008956D
:1001D000882331F0E9ECF0E080818068808305C0FD
:1001E000E9ECF0E080818078808380E008958823C6
:1001F00031F0E9ECF0E080818064808305C0E9ECB7
:10020000F0E080818074808380E00895E0910401B3
:10021000F0E0E65BFE4F8083809104018F5F809366
:100220000401809105018F5F8093050108951F925D
:100230000F920FB60F9211242F933F934F935F931A
:100240006F937F938F939F93AF93BF93EF93FF939E
:1002500010920101109200015F988091CE00E7E4B6
:10026000F1E080839091C800918395E092830E9491
:100270000601FF91EF91BF91AF919F918F917F9177
:100280006F915F914F913F912F910F900FBE0F9003
:100290001F9018951F920F920FB60F9211248F93F3
:1002A000EF93FF93809108018823D9F08091070193
:1002B000893030F0109208015D98109207010DC04E
:1002C000E0910701F0E0E25CFE4F80818093CE0078
:1002D000809107018F5F80930701109205011092B2
:1002E0000401FF91EF918F910F900FBE0F901F901F
:1002F000189580910501893018F081E080930601FE
:10030000F89480910601882309F441C010920C01F1
:1003100010920B0189E080930B0180910B018230D8
:10032000C0F0E091040180910B01F0E0E81BF109BD
:10033000E65BFE4F908180910C01890F80930C0148
:1003400080910B01815080930B0180910B018230D1
:1003500040F7E0910401F0E0E75BFE4F808180937D
:10036000090190910C0180910901981306C081E068
:1003700080930A011092050107C0109205011092A6
:10038000040182E080930A011092090102C01092D8
:100390000A0178941092060180910A01089590E074
:1003A0008C309105A0F5FC01E25CFF4F0C94340702
:1003B00087E68093CC00089584E48093CC00089570
:1003C00083E38093CC00089582E28093CC0008956B
:1003D00089E18093CC00089580E18093CC0008955A
:1003E0008CE08093CC00089588E08093CC00089541
:1003F00083E08093CC00089583E08093CC0008953F
:1004000081E08093CC0008951092CC00089588E09C
:100410008093CC000895E0911401F0E0ED5AFE4F76
:1004200080E090E02191DC01A25CBE4F2C9301960C
:1004300089309105B9F780911401823110F0109242
:10044000140181E00895E0910401F0E0EF5BFE4FBC
:1004500080E090E02191DC01A259BE4F2C930196DF
:1004600089309105B9F780910401823110F0109222
:10047000040181E0089581E0809317015C9AE09186
:1004800016018E0F80931601F0E0E259FE4F808135
:100490008093C600089580E090E020E0FC01E259DE
:1004A000FE4F3081230F019688309105B9F72093D4
:1004B0007601089590911201EEE6F1E0908390911B
:1004C00011019183828380913F018383872F992734
:1004D000AA27BB278483CB01AA27BB278583BB27F9
:1004E000A72F962F852F868347830E944B020E9459
:1004F0003B0208950F931F93CF93EEE3F1E0248125
:1005000045818681978150E060E070E0BA0155270F
:100510004427722B492B582BDB01CA0140930D0154
:1005200050930E0160930F0170931001C181C0318F
:1005300048F4CE3008F0F6C1C93041F0CA3009F4B1
:100540002AC1E7C1C83809F4B2C1E3C1C091410171
:10055000C11186C020914001213439F118F42034B2
:1005600039F07AC02234F1F12C3409F458C074C047
:100570000091270110E020E030E080179107A207EA
:10058000B30739F040932701642F80E190E00E9487
:100590004A0740910D0150910E0160910F01709139
:1005A000100185E60E945A02BDC10091280110E0A9
:1005B00020E030E080179107A207B30739F040939D
:1005C0002801642F81E190E00E944A0740910D01CB
:1005D00050910E0160910F017091100185E60E940B
:1005E0005A02A0C10091290110E020E030E08017FC
:1005F0009107A207B30739F040932901642F82E1E4
:1006000090E00E944A0740910D0150910E016091C7
:100610000F017091100185E60E945A0283C100917A
:100620002B0110E020E030E080179107A207B3070C
:1006300039F040932B01642F84E190E00E944A0737
:1006400040910D0150910E0160910F0170911001C8
:1006500085E60E945A0266C183E00E945A0262C186
:1006600020914101213009F08CC0209140012134BA
:1006700049F118F4203441F07FC0223409F440C01D
:100680002C3409F45BC078C00091220110E020E016
:1006900030E080179107A207B30739F04093220199
:1006A000642F80E290E00E944A0740910D01509132
:1006B0000E0160910F017091100185E60E945A02AF
:1006C000C0E030C10091230110E020E030E080174D
:1006D0009107A207B30739F040932301642F81E209
:1006E00090E00E944A0740910D0150910E016091E7
:1006F0000F017091100185E60E945A02C0E012C1FC
:100700000091240110E020E030E080179107A2075B
:10071000B30739F040932401642F82E290E00E94F5
:100720004A0740910D0150910E0160910F017091A7
:10073000100185E60E945A02C0E0F4C00091260133
:1007400010E020E030E080179107A207B30739F0EE
:1007500040932601642F84E290E00E944A07409172
:100760000D0150910E0160910F017091100185E60D
:100770000E945A02C0E0D6C083E00E945A02C0E044
:10078000D1C04091410150E060E070E087E00E94FC
:100790005A02C0E0C7C0C0914101C1113AC0809166
:1007A0004001813449F018F4803409F129C08234C1
:1007B00061F08C3499F024C04091280150E060E051
:1007C00070E085E60E945A02ADC04091290150E0D8
:1007D00060E070E085E60E945A02A4C040912B01BF
:1007E00050E060E070E085E60E945A029BC04091B4
:1007F000270150E060E070E085E60E945A0292C056
:100800004091400150E060E070E083E00E945A02B5
:1008100089C080914101813009F03FC08091400141
:10082000813449F018F4803421F12DC0823469F00C
:100830008C34A9F028C04091230150E060E070E0C2
:1008400085E60E945A02C0E06DC04091240150E04C
:1008500060E070E085E60E945A02C0E063C040910B
:10086000260150E060E070E085E60E945A02C0E098
:1008700059C04091220150E060E070E085E60E949E
:100880005A02C0E04FC04091400150E060E070E08B
:1008900083E00E945A02C0E045C04091410150E00F
:1008A00060E070E087E00E945A02C0E03BC0C09167
:1008B0004001C11118C080911201EEE6F1E0808381
:1008C00082E0818389EC828380913F01838386E586
:1008D000848381E385839EE2968387830E944B0213
:1008E0000E943B021FC0C0914001C11108C040E4FA
:1008F00050E360E270E184E60E945A0213C0409126
:10090000400150E060E070E083E00E945A02C0E0E5
:1009100009C040913F0150E060E070E082E00E9439
:100920005A02C0E08C2FCF911F910F91089545E09E
:1009300050E060E170E087E291E00E943A07809128
:100940002701823491F0E7E2F1E082E480838AE0DB
:10095000818382E082831382848345E050E060E1FA
:1009600070E0CF010E945C0704C0809128010E94C2
:100970001306E7E2F1E08481809312018281809383
:100980001101089545E050E060E270E082E291E0FC
:100990000E943A0780912201823491F0E2E2F1E074
:1009A00082E4808387E0818382E082831382848370
:1009B00045E050E060E270E0CF010E945C0704C0B7
:1009C000809123010E94CF01E2E2F1E084818093D3
:1009D00012018281809311010895CF92DF92EF92EC
:1009E000FF926B017C01CC0CDD1CEE1CFF1CCC0CBF
:1009F000DD1CEE1CFF1CCC0CDD1CEE1CFF1CA7013B
:100A00009601220F331F441F551F60E074E284EFEC
:100A100090E00E9412072150310941E050E0C616D3
:100A2000D706E806F90610F040E050E0240F351F25
:100A30002093C4003093C500E1ECF0E08081886130
:100A40008083E2ECF0E080818660808380E0FF902C
:100A5000EF90DF90CF900895882331F0E1ECF0E043
:100A600080818068808305C0E1ECF0E0808180783F
:100A7000808380E00895882331F0E1ECF0E080810C
:100A80008064808305C0E1ECF0E080818074808325
:100A900080E00895E0911401F0E0E45AFE4F808375
:100AA000809114018F5F80931401809113018F5FF7
:100AB0008093130108951F920F920FB60F92112485
:100AC0002F933F934F935F936F937F938F939F9356
:100AD000AF93BF93EF93FF93109203011092020123
:100AE0005E988091C600E9E8F1E080839091C000B3
:100AF000918395E092830E944A05FF91EF91BF9107
:100B0000AF919F918F917F916F915F914F913F91A5
:100B10002F910F900FBE0F901F9018951F920F925C
:100B20000FB60F9211248F93EF93FF9380911701CB
:100B30008823D9F080911601893030F01092170186
:100B40005C98109216010DC0E0911601F0E0E25998
:100B5000FE4F80818093C600809116018F5F809345
:100B600016011092130110921401FF91EF918F91D1
:100B70000F900FBE0F901F90189580911301893030
:100B800018F081E080931501F89480911501882375
:100B900009F441C010921B0110921A0189E0809360
:100BA0001A0180911A018230C0F0E0911401809105
:100BB0001A01F0E0E81BF109E45AFE4F90818091A0
:100BC0001B01890F80931B0180911A018150809332
:100BD0001A0180911A01823040F7E0911401F0E08F
:100BE000E55AFE4F80818093180190911B018091FE
:100BF0001801981306C081E0809319011092130127
:100C000007C0109213011092140182E08093190121
:100C10001092180102C010921901789410921501D7
:100C200080911901089590E08C309105A0F5FC01A8
:100C3000E65BFF4F0C94340787E68093C400089569
:100C400084E48093C400089583E38093C4000895EE
:100C500082E28093C400089589E18093C4000895DE
:100C600080E18093C40008958CE08093C4000895CF
:100C700088E08093C400089583E08093C4000895C1
:100C800083E08093C400089581E08093C4000895B8
:100C90001092C400089588E08093C40008950E94D3
:100CA000BD05813009F05BC00E940B025F9A809104
:100CB0003E0190912901891340C00E947A028E3032
:100CC00019F08F30E9F0089540914001411112C0B0
:100CD00040914101411107C040E050E0BA0184E673
:100CE0000E945A020DC050E060E070E087E00E9470
:100CF0005A0206C050E060E070E083E00E945A02B1
:100D000040914001411112C040914101411107C081
:100D100040E050E0BA0184E60E945A02089550E093
:100D200060E070E087E00E945A02089550E060E0C1
:100D300070E083E00E945A0208958436C0F081E09A
:100D4000809308015D9AE09107018E0F809307015F
:100D5000F0E0E25CFE4F80818093CE000895823007
:100D600031F440E050E0BA0181E00E945A02089557
:100D70000E947901813089F40E94230281E08093EE
:100D800017015C9AE09116018E0F80931601F0E036
:100D9000E259FE4F80818093C600089580E092EC76
:100DA000A1E0B0E080931C0190931D01A0931E016F
:100DB000B0931F0160E072EC81E090E00E94ED04CE
:100DC0008093210180E895E2A0E0B0E080931C01CF
:100DD00090931D01A0931E01B0931F0160E875E27E
:100DE00080E090E00E94A9008093200181E00E94B1
:100DF0002C0581E00E943B0581E00E94E80081E033
:100E00000E94F7000E9497040E94C2040E946A0098
:100E100078940E944F060E94B8060E9477000E94B4
:100E20009000F7CFA1E21A2EAA1BBB1BFD010DC03B
:100E3000AA1FBB1FEE1FFF1FA217B307E407F5078A
:100E400020F0A21BB30BE40BF50B661F771F881F66
:100E5000991F1A9469F760957095809590959B01FC
:100E6000AC01BD01CF010895EE0FFF1F0590F49175
:100E7000E02D0994DC01CB01FC01F999FECF06C0FD
:100E8000F2BDE1BDF89A319600B40D924150504048
:100E9000B8F70895262FF999FECF92BD81BDF89A33
:100EA000019700B4021639F01FBA20BD0FB6F894AE
:100EB000FA9AF99A0FBE0895DC01CB0103C02D9177
:100EC0000E94670741505040D0F70895262FF999A6
:100ED000FECF1FBA92BD81BD20BD0FB6F894FA9A1D
:0C0EE000F99A0FBE01960895F894FFCF18
:00000001FF
