S01000004669726D776172652E73726563D7
S11300000C943E000C9450000C9450000C9450003E
S11300100C9450000C9450000C9450000C9450001C
S11300200C9450000C9450000C9450000C9450000C
S11300300C9450000C9450000C9450000C945000FC
S11300400C9450000C9450000C9450000C945000EC
S11300500C9416020C9450000C9449020C94500019
S11300600C9450000C9450000C9450000C945000CC
S11300700C94C0000C9450000C94F30011241FBE87
S1130080CFEFD0E1DEBFCDBF21E0A0E0B1E001C001
S11300901D92AC37B207E1F70E94CE020C94A20382
S11300A00C940000CF92DF92EF92FF926B017C01DF
S11300B0CC0CDD1CEE1CFF1CCC0CDD1CEE1CFF1C50
S11300C0CC0CDD1CEE1CFF1CA7019601220F331F74
S11300D0441F551F60E074E284EF90E00E948003A7
S11300E02150310941E050E0C616D706E806F9066A
S11300F010F040E050E0240F351F2093CC003093E3
S1130100CD00E9ECF0E0808188618083EAECF0E0E6
S113011080818660808380E0FF90EF90DF90CF90B5
S11301200895882331F0E9ECF0E0808180688083D1
S113013005C0E9ECF0E080818078808380E0089558
S1130140882331F0E9ECF0E080818064808305C08D
S1130150E9ECF0E080818074808380E00895E09190
S11301600401F0E0E65CFE4F8083809104018F5F20
S113017080930401809105018F5F809305010895A8
S11301801F920F920FB60F9211242F933F934F9308
S11301905F936F937F938F939F93AF93BF93EF93EB
S11301A0FF9310920101109200015F988091CE009C
S11301B0EEE2F1E080839091C800918395E0928310
S11301C00E94AF00FF91EF91BF91AF919F918F91EA
S11301D07F916F915F914F913F912F910F900FBE3F
S11301E00F901F9018951F920F920FB60F92112423
S11301F08F93EF93FF93809108018823D9F0809126
S11302000701893030F0109208015D9810920701BF
S11302100DC0E0910701F0E0EF5CFE4F8081809318
S1130220CE00809107018F5F809307011092050132
S113023010920401FF91EF918F910F900FBE0F90D8
S11302401F90189580910501893018F081E0809302
S11302500601F89480910601882309F441C01092A4
S11302600C0110920B0189E080930B0180910B012A
S11302708230C0F0E091040180910B01F0E0E81BB2
S1130280F109E65CFE4F908180910C01890F809307
S11302900C0180910B01815080930B0180910B0123
S11302A0823040F7E0910401F0E0E75CFE4F80818A
S11302B08093090190910C0180910901981306C063
S11302C081E080930A011092050107C01092050194
S11302D01092040182E080930A011092090102C085
S11302E010920A0178941092060180910A010895EF
S11302F0E0910E01F0E0E45BFE4F80E090E021919C
S1130300DC01AF5CBE4F2C93019689309105B9F79F
S113031080910E01823110F010920E0181E0089557
S1130320E0910401F0E0EF5CFE4F80E090E0219169
S1130330DC01A45BBE4F2C93019689309105B9F77B
S113034080910401823110F01092040181E008953B
S1130350CF92DF92EF92FF926B017C01CC0CDD1CFB
S1130360EE1CFF1CCC0CDD1CEE1CFF1CCC0CDD1C9D
S1130370EE1CFF1CA7019601220F331F441F551FBB
S113038060E074E284EF90E00E9480032150310920
S113039041E050E0C616D706E806F90610F040E042
S11303A050E0240F351F2093C4003093C500E1ECC6
S11303B0F0E0808188618083E2ECF0E080818660F7
S11303C0808380E0FF90EF90DF90CF9008958823A2
S11303D031F0E1ECF0E080818068808305C0E1ECDD
S11303E0F0E080818078808380E00895882331F074
S11303F0E1ECF0E080818064808305C0E1ECF0E012
S113040080818074808380E00895E0910E01F0E0A3
S1130410EB5AFE4F808380910E018F5F80930E0113
S113042080910D018F5F80930D0108951F920F92AB
S11304300FB60F9211242F933F934F935F936F93B3
S11304407F938F939F93AF93BF93EF93FF931092F8
S11304500301109202015E988091C600E9E7F1E081
S113046080839091C000918395E092830E9405025D
S1130470FF91EF91BF91AF919F918F917F916F9178
S11304805F914F913F912F910F900FBE0F901F904E
S113049018951F920F920FB60F9211248F93EF931A
S11304A0FF93809111018823D9F080911001893044
S11304B030F0109211015C98109210010DC0E0917F
S11304C01001F0E0E45BFE4F80818093C6008091D0
S11304D010018F5F8093100110920D0110920E0194
S11304E0FF91EF918F910F900FBE0F901F90189571
S11304F080910D01893018F081E080930F01F89408
S113050080910F01882309F441C0109215011092C3
S1130510140189E080931401809114018230C0F0A9
S1130520E0910E0180911401F0E0E81BF109EB5A0F
S1130530FE4F908180911501890F80931501809160
S1130540140181508093140180911401823040F78A
S1130550E0910E01F0E0EC5AFE4F8081809312018D
S11305609091150180911201981306C081E0809347
S1130570130110920D0107C010920D0110920E018B
S113058082E0809313011092120102C010921301B1
S1130590789410920F0180911301089580E092ECF9
S11305A0A1E0B0E08093160190931701A093180185
S11305B0B093190160E072EC81E090E00E94A80120
S11305C080931B0180E895E2A0E0B0E080931601DF
S11305D090931701A0931801B093190160E875E294
S11305E080E090E00E94520080931A0181E090E044
S11305F00E94E70181E090E00E94F60181E090E032
S11306000E94910081E090E00E94A000549A559AC3
S113061050985298519A539A569A579A5F985E985E
S11306205C985D98789401E311E0DD24D3940F2E57
S1130630FEECEF2EF12CF02DC6ECD0E00E947802F7
S11306408130A9F40E947801F8018081843678F021
S1130650D09208015D9AE091070181E08E0F8093AA
S11306600701F0E0EF5CFE4F8081F70180830E9478
S11306702201813081F40E949001D09211015C9A90
S1130680E091100181E08E0F80931001F0E0E45BB3
S1130690FE4F808188838091020190910301813112
S11306A0974248F05E9810920D0110920E0110923C
S11306B00301109202015E9A80910201909103015C
S11306C0019690930301809302018091000190911F
S11306D001018131974248F05F9810920501109210
S11306E0040110920101109200015F9A80910001AF
S11306F090910101019690930101809300019ECF96
S1130700A1E21A2EAA1BBB1BFD010DC0AA1FBB1F11
S1130710EE1FFF1FA217B307E407F50720F0A21B83
S1130720B30BE40BF50B661F771F881F991F1A94F0
S113073069F760957095809590959B01AC01BD011A
S10B0740CF010895F894FFCFE6
S9030000FC
